:10000000000000308A00FC28FF00030E8301A100DD
:100010000A08A0008A010408A2007708A300780853
:10002000A4007908A5007A08A600831383128C30F7
:100030008400801D1D288C192E2822088400230886
:10004000F7002408F8002508F9002608FA0020081F
:100050008A00210E8300FF0E7F0E09008A110A120A
:100060003128831614088312C50045080C3A031979
:100070004928203A03196028183A031983283D3A81
:1000800003198828203A03199928183A0319A72830
:10009000BC28AC01C10803195728A81D57282C08F3
:1000A000AC0A373E84008313000893005F28A8152C
:1000B0001412AB0803195E2828165F28A815C1285A
:1000C000A81D7828C1080319752841082C020318B7
:1000D00075282C08093C031C75282C08AC0A373EEF
:1000E00084008313000893007728FE3093001416D1
:1000F0008316141E81288312A801AC01C1011416B5
:1001000083168312C128A801AC01C1011416C128AD
:100110001308C4001413AB01C6014608093C031CB4
:1001200098282D304607840083138001C60A8D2845
:10013000C1281308C4002B08093C031CA6282D3035
:100140002B078400831344088000AB0AC1281308DE
:10015000C4002B08093C031CB4282D302B07840055
:10016000831344088000AB0A8316141EBA28831236
:10017000281683168312C1288316141083121413B1
:1001800014168C118A110A121D2818308316870044
:100190008312A70008300317850083160313010894
:1001A000C0390438810064008312C7014708093C44
:1001B000031CE6282D304707840083138001373065
:1001C0004707840083138001C70AD628AB01AC011E
:1001D000C10183169413353083129400D8308316EE
:1001E000930094018312C20183168C15C0308312D0
:1001F0008B048A110A126A2903081F3983005030C0
:10020000F7002030840083138001840AF70B04294F
:10021000F101F201F301F401F501F601F801F90130
:10022000FA01FB01FC01FD01FE015030F700A03096
:10023000840083138001840AF70B1A296030F700C9
:100240001030840083178001840AF70B232983135D
:100250005530F7009030840083178001840AF70B33
:100260002D29831383160317EE01831383120313BF
:10027000A001FF30A700A715270883168700831267
:100280002716270883168700D83093000930831279
:100290009400FF3083169300363083129400831647
:1002A00011148312AA01AB01AC01C101C201C30147
:1002B000831603170908C039890003131F129F1200
:1002C0000030031788008312870188018901831396
:1002D0000313C528281EA6292B08003C03187329E0
:1002E0002D08A90075294208A900290803198229A7
:1002F000013A03198229033A03198A29013A031999
:100300009329A129AC012908C200290888001030CE
:10031000A806A529AC012908C2002E0888001030C3
:10032000A806A529A529AC01FF30B700FE30B8000A
:10033000FD30B9000330C1002908C2001030A80602
:10034000A529C101AC011030A806CC29A81DC029DF
:1003500042080319B529013A0319B529033A0319CB
:10036000BA29013A0319BA29BA29AC010130B700F8
:10037000C100BC29AC01C101A80128151416CC2963
:10038000281DCC29C1080319C82937089300AC0AD5
:0C0390000430A806A81514166A29CD290F
:04400E00F40CFF3F70
:00000001FF
;PIC16F887
;CRC=1E48  CREATED="12-Jun-16 15:44"
